{
  "_format": "hh-sol-artifact-1",
  "contractName": "BORA",
  "sourceName": "contracts/contracts/BORA.sol",
  "abi": [
    {
      "inputs": [
        {
          "internalType": "address",
          "name": "founder",
          "type": "address"
        },
        {
          "internalType": "uint256",
          "name": "founderAmount",
          "type": "uint256"
        },
        {
          "internalType": "address",
          "name": "rewardsReceiver",
          "type": "address"
        },
        {
          "internalType": "uint256",
          "name": "rewardsAmount",
          "type": "uint256"
        }
      ],
      "stateMutability": "nonpayable",
      "type": "constructor"
    },
    {
      "inputs": [
        {
          "internalType": "address",
          "name": "spender",
          "type": "address"
        },
        {
          "internalType": "uint256",
          "name": "allowance",
          "type": "uint256"
        },
        {
          "internalType": "uint256",
          "name": "needed",
          "type": "uint256"
        }
      ],
      "name": "ERC20InsufficientAllowance",
      "type": "error"
    },
    {
      "inputs": [
        {
          "internalType": "address",
          "name": "sender",
          "type": "address"
        },
        {
          "internalType": "uint256",
          "name": "balance",
          "type": "uint256"
        },
        {
          "internalType": "uint256",
          "name": "needed",
          "type": "uint256"
        }
      ],
      "name": "ERC20InsufficientBalance",
      "type": "error"
    },
    {
      "inputs": [
        {
          "internalType": "address",
          "name": "approver",
          "type": "address"
        }
      ],
      "name": "ERC20InvalidApprover",
      "type": "error"
    },
    {
      "inputs": [
        {
          "internalType": "address",
          "name": "receiver",
          "type": "address"
        }
      ],
      "name": "ERC20InvalidReceiver",
      "type": "error"
    },
    {
      "inputs": [
        {
          "internalType": "address",
          "name": "sender",
          "type": "address"
        }
      ],
      "name": "ERC20InvalidSender",
      "type": "error"
    },
    {
      "inputs": [
        {
          "internalType": "address",
          "name": "spender",
          "type": "address"
        }
      ],
      "name": "ERC20InvalidSpender",
      "type": "error"
    },
    {
      "inputs": [
        {
          "internalType": "address",
          "name": "owner",
          "type": "address"
        }
      ],
      "name": "OwnableInvalidOwner",
      "type": "error"
    },
    {
      "inputs": [
        {
          "internalType": "address",
          "name": "account",
          "type": "address"
        }
      ],
      "name": "OwnableUnauthorizedAccount",
      "type": "error"
    },
    {
      "anonymous": false,
      "inputs": [
        {
          "indexed": true,
          "internalType": "address",
          "name": "owner",
          "type": "address"
        },
        {
          "indexed": true,
          "internalType": "address",
          "name": "spender",
          "type": "address"
        },
        {
          "indexed": false,
          "internalType": "uint256",
          "name": "value",
          "type": "uint256"
        }
      ],
      "name": "Approval",
      "type": "event"
    },
    {
      "anonymous": false,
      "inputs": [
        {
          "indexed": true,
          "internalType": "address",
          "name": "previousOwner",
          "type": "address"
        },
        {
          "indexed": true,
          "internalType": "address",
          "name": "newOwner",
          "type": "address"
        }
      ],
      "name": "OwnershipTransferred",
      "type": "event"
    },
    {
      "anonymous": false,
      "inputs": [
        {
          "indexed": true,
          "internalType": "address",
          "name": "from",
          "type": "address"
        },
        {
          "indexed": true,
          "internalType": "address",
          "name": "to",
          "type": "address"
        },
        {
          "indexed": false,
          "internalType": "uint256",
          "name": "value",
          "type": "uint256"
        }
      ],
      "name": "Transfer",
      "type": "event"
    },
    {
      "inputs": [],
      "name": "MAX_SUPPLY",
      "outputs": [
        {
          "internalType": "uint256",
          "name": "",
          "type": "uint256"
        }
      ],
      "stateMutability": "view",
      "type": "function"
    },
    {
      "inputs": [
        {
          "internalType": "address",
          "name": "owner",
          "type": "address"
        },
        {
          "internalType": "address",
          "name": "spender",
          "type": "address"
        }
      ],
      "name": "allowance",
      "outputs": [
        {
          "internalType": "uint256",
          "name": "",
          "type": "uint256"
        }
      ],
      "stateMutability": "view",
      "type": "function"
    },
    {
      "inputs": [
        {
          "internalType": "address",
          "name": "spender",
          "type": "address"
        },
        {
          "internalType": "uint256",
          "name": "value",
          "type": "uint256"
        }
      ],
      "name": "approve",
      "outputs": [
        {
          "internalType": "bool",
          "name": "",
          "type": "bool"
        }
      ],
      "stateMutability": "nonpayable",
      "type": "function"
    },
    {
      "inputs": [
        {
          "internalType": "address",
          "name": "account",
          "type": "address"
        }
      ],
      "name": "balanceOf",
      "outputs": [
        {
          "internalType": "uint256",
          "name": "",
          "type": "uint256"
        }
      ],
      "stateMutability": "view",
      "type": "function"
    },
    {
      "inputs": [],
      "name": "decimals",
      "outputs": [
        {
          "internalType": "uint8",
          "name": "",
          "type": "uint8"
        }
      ],
      "stateMutability": "view",
      "type": "function"
    },
    {
      "inputs": [],
      "name": "name",
      "outputs": [
        {
          "internalType": "string",
          "name": "",
          "type": "string"
        }
      ],
      "stateMutability": "view",
      "type": "function"
    },
    {
      "inputs": [],
      "name": "owner",
      "outputs": [
        {
          "internalType": "address",
          "name": "",
          "type": "address"
        }
      ],
      "stateMutability": "view",
      "type": "function"
    },
    {
      "inputs": [],
      "name": "renounceOwnership",
      "outputs": [],
      "stateMutability": "nonpayable",
      "type": "function"
    },
    {
      "inputs": [],
      "name": "symbol",
      "outputs": [
        {
          "internalType": "string",
          "name": "",
          "type": "string"
        }
      ],
      "stateMutability": "view",
      "type": "function"
    },
    {
      "inputs": [],
      "name": "totalSupply",
      "outputs": [
        {
          "internalType": "uint256",
          "name": "",
          "type": "uint256"
        }
      ],
      "stateMutability": "view",
      "type": "function"
    },
    {
      "inputs": [
        {
          "internalType": "address",
          "name": "to",
          "type": "address"
        },
        {
          "internalType": "uint256",
          "name": "value",
          "type": "uint256"
        }
      ],
      "name": "transfer",
      "outputs": [
        {
          "internalType": "bool",
          "name": "",
          "type": "bool"
        }
      ],
      "stateMutability": "nonpayable",
      "type": "function"
    },
    {
      "inputs": [
        {
          "internalType": "address",
          "name": "from",
          "type": "address"
        },
        {
          "internalType": "address",
          "name": "to",
          "type": "address"
        },
        {
          "internalType": "uint256",
          "name": "value",
          "type": "uint256"
        }
      ],
      "name": "transferFrom",
      "outputs": [
        {
          "internalType": "bool",
          "name": "",
          "type": "bool"
        }
      ],
      "stateMutability": "nonpayable",
      "type": "function"
    },
    {
      "inputs": [
        {
          "internalType": "address",
          "name": "newOwner",
          "type": "address"
        }
      ],
      "name": "transferOwnership",
      "outputs": [],
      "stateMutability": "nonpayable",
      "type": "function"
    }
  ],
  "bytecode": "0x60806040523480156200001157600080fd5b5060405162000e4138038062000e418339810160408190526200003491620003d4565b836040518060400160405280600a8152602001692127a920902a37b5b2b760b11b81525060405180604001604052806004815260200163424f524160e01b8152508160039081620000869190620004c4565b506004620000958282620004c4565b5050506001600160a01b038116620000c857604051631e4fbdf760e01b8152600060048201526024015b60405180910390fd5b620000d381620001f4565b506001600160a01b0384166200011e5760405162461bcd60e51b815260206004820152600f60248201526e666f756e646572206973207a65726f60881b6044820152606401620000bf565b6001600160a01b038216620001765760405162461bcd60e51b815260206004820152601860248201527f72657761726473207265636569766572206973207a65726f00000000000000006044820152606401620000bf565b6a52b7d2dcc80cd2e40000006200018e828562000590565b14620001d25760405162461bcd60e51b815260206004820152601260248201527165786365656473206d617820737570706c7960701b6044820152606401620000bf565b620001de848462000246565b620001ea828262000246565b50505050620005b8565b600580546001600160a01b038381166001600160a01b0319831681179093556040519116919082907f8be0079c531659141344cd1fd0a4f28419497f9722a3daafe3b4186f6b6457e090600090a35050565b6001600160a01b038216620002725760405163ec442f0560e01b815260006004820152602401620000bf565b620002806000838362000284565b5050565b6001600160a01b038316620002b3578060026000828254620002a7919062000590565b90915550620003279050565b6001600160a01b03831660009081526020819052604090205481811015620003085760405163391434e360e21b81526001600160a01b03851660048201526024810182905260448101839052606401620000bf565b6001600160a01b03841660009081526020819052604090209082900390555b6001600160a01b038216620003455760028054829003905562000364565b6001600160a01b03821660009081526020819052604090208054820190555b816001600160a01b0316836001600160a01b03167fddf252ad1be2c89b69c2b068fc378daa952ba7f163c4a11628f55a4df523b3ef83604051620003aa91815260200190565b60405180910390a3505050565b80516001600160a01b0381168114620003cf57600080fd5b919050565b60008060008060808587031215620003eb57600080fd5b620003f685620003b7565b9350602085015192506200040d60408601620003b7565b6060959095015193969295505050565b634e487b7160e01b600052604160045260246000fd5b600181811c908216806200044857607f821691505b6020821081036200046957634e487b7160e01b600052602260045260246000fd5b50919050565b601f821115620004bf576000816000526020600020601f850160051c810160208610156200049a5750805b601f850160051c820191505b81811015620004bb57828155600101620004a6565b5050505b505050565b81516001600160401b03811115620004e057620004e06200041d565b620004f881620004f1845462000433565b846200046f565b602080601f831160018114620005305760008415620005175750858301515b600019600386901b1c1916600185901b178555620004bb565b600085815260208120601f198616915b82811015620005615788860151825594840194600190910190840162000540565b5085821015620005805787850151600019600388901b60f8161c191681555b5050505050600190811b01905550565b80820180821115620005b257634e487b7160e01b600052601160045260246000fd5b92915050565b61087980620005c86000396000f3fe608060405234801561001057600080fd5b50600436106100cf5760003560e01c806370a082311161008c57806395d89b411161006657806395d89b41146101a9578063a9059cbb146101b1578063dd62ed3e146101c4578063f2fde38b146101fd57600080fd5b806370a082311461015b578063715018a6146101845780638da5cb5b1461018e57600080fd5b806306fdde03146100d4578063095ea7b3146100f257806318160ddd1461011557806323b872dd14610127578063313ce5671461013a57806332cb6b0c14610149575b600080fd5b6100dc610210565b6040516100e991906106c2565b60405180910390f35b61010561010036600461072d565b6102a2565b60405190151581526020016100e9565b6002545b6040519081526020016100e9565b610105610135366004610757565b6102bc565b604051601281526020016100e9565b6101196a52b7d2dcc80cd2e400000081565b610119610169366004610793565b6001600160a01b031660009081526020819052604090205490565b61018c6102e0565b005b6005546040516001600160a01b0390911681526020016100e9565b6100dc6102f4565b6101056101bf36600461072d565b610303565b6101196101d23660046107b5565b6001600160a01b03918216600090815260016020908152604080832093909416825291909152205490565b61018c61020b366004610793565b610311565b60606003805461021f906107e8565b80601f016020809104026020016040519081016040528092919081815260200182805461024b906107e8565b80156102985780601f1061026d57610100808354040283529160200191610298565b820191906000526020600020905b81548152906001019060200180831161027b57829003601f168201915b5050505050905090565b6000336102b0818585610354565b60019150505b92915050565b6000336102ca858285610366565b6102d58585856103e5565b506001949350505050565b6102e8610444565b6102f26000610471565b565b60606004805461021f906107e8565b6000336102b08185856103e5565b610319610444565b6001600160a01b03811661034857604051631e4fbdf760e01b8152600060048201526024015b60405180910390fd5b61035181610471565b50565b61036183838360016104c3565b505050565b6001600160a01b038381166000908152600160209081526040808320938616835292905220546000198110156103df57818110156103d057604051637dc7a0d960e11b81526001600160a01b0384166004820152602481018290526044810183905260640161033f565b6103df848484840360006104c3565b50505050565b6001600160a01b03831661040f57604051634b637e8f60e11b81526000600482015260240161033f565b6001600160a01b0382166104395760405163ec442f0560e01b81526000600482015260240161033f565b610361838383610598565b6005546001600160a01b031633146102f25760405163118cdaa760e01b815233600482015260240161033f565b600580546001600160a01b038381166001600160a01b0319831681179093556040519116919082907f8be0079c531659141344cd1fd0a4f28419497f9722a3daafe3b4186f6b6457e090600090a35050565b6001600160a01b0384166104ed5760405163e602df0560e01b81526000600482015260240161033f565b6001600160a01b03831661051757604051634a1406b160e11b81526000600482015260240161033f565b6001600160a01b03808516600090815260016020908152604080832093871683529290522082905580156103df57826001600160a01b0316846001600160a01b03167f8c5be1e5ebec7d5bd14f71427d1e84f3dd0314c0f7b2291e5b200ac8c7c3b9258460405161058a91815260200190565b60405180910390a350505050565b6001600160a01b0383166105c35780600260008282546105b89190610822565b909155506106359050565b6001600160a01b038316600090815260208190526040902054818110156106165760405163391434e360e21b81526001600160a01b0385166004820152602481018290526044810183905260640161033f565b6001600160a01b03841660009081526020819052604090209082900390555b6001600160a01b03821661065157600280548290039055610670565b6001600160a01b03821660009081526020819052604090208054820190555b816001600160a01b0316836001600160a01b03167fddf252ad1be2c89b69c2b068fc378daa952ba7f163c4a11628f55a4df523b3ef836040516106b591815260200190565b60405180910390a3505050565b60006020808352835180602085015260005b818110156106f0578581018301518582016040015282016106d4565b506000604082860101526040601f19601f8301168501019250505092915050565b80356001600160a01b038116811461072857600080fd5b919050565b6000806040838503121561074057600080fd5b61074983610711565b946020939093013593505050565b60008060006060848603121561076c57600080fd5b61077584610711565b925061078360208501610711565b9150604084013590509250925092565b6000602082840312156107a557600080fd5b6107ae82610711565b9392505050565b600080604083850312156107c857600080fd5b6107d183610711565b91506107df60208401610711565b90509250929050565b600181811c908216806107fc57607f821691505b60208210810361081c57634e487b7160e01b600052602260045260246000fd5b50919050565b808201808211156102b657634e487b7160e01b600052601160045260246000fdfea2646970667358221220c282e9ee0602347b9d405c6af58f36a7aa343255b9f5a5ed6c3e62c065f639fa64736f6c63430008170033",
  "linkReferences": {},
  "deployedLinkReferences": {}
}