{
  "_format": "hh-sol-artifact-1",
  "contractName": "KYCAttestor",
  "sourceName": "contracts/contracts/KYCAttestor.sol",
  "abi": [
    {
      "inputs": [],
      "stateMutability": "nonpayable",
      "type": "constructor"
    },
    {
      "anonymous": false,
      "inputs": [
        {
          "indexed": true,
          "internalType": "address",
          "name": "a",
          "type": "address"
        },
        {
          "indexed": false,
          "internalType": "bool",
          "name": "ok",
          "type": "bool"
        }
      ],
      "name": "AttestorSet",
      "type": "event"
    },
    {
      "anonymous": false,
      "inputs": [
        {
          "indexed": true,
          "internalType": "address",
          "name": "user",
          "type": "address"
        },
        {
          "indexed": false,
          "internalType": "bool",
          "name": "ok",
          "type": "bool"
        }
      ],
      "name": "Verified",
      "type": "event"
    },
    {
      "inputs": [
        {
          "internalType": "address",
          "name": "",
          "type": "address"
        }
      ],
      "name": "attestor",
      "outputs": [
        {
          "internalType": "bool",
          "name": "",
          "type": "bool"
        }
      ],
      "stateMutability": "view",
      "type": "function"
    },
    {
      "inputs": [],
      "name": "owner",
      "outputs": [
        {
          "internalType": "address",
          "name": "",
          "type": "address"
        }
      ],
      "stateMutability": "view",
      "type": "function"
    },
    {
      "inputs": [
        {
          "internalType": "address",
          "name": "a",
          "type": "address"
        },
        {
          "internalType": "bool",
          "name": "ok",
          "type": "bool"
        }
      ],
      "name": "setAttestor",
      "outputs": [],
      "stateMutability": "nonpayable",
      "type": "function"
    },
    {
      "inputs": [
        {
          "internalType": "address",
          "name": "user",
          "type": "address"
        },
        {
          "internalType": "bool",
          "name": "ok",
          "type": "bool"
        }
      ],
      "name": "setVerified",
      "outputs": [],
      "stateMutability": "nonpayable",
      "type": "function"
    },
    {
      "inputs": [
        {
          "internalType": "address",
          "name": "",
          "type": "address"
        }
      ],
      "name": "verified",
      "outputs": [
        {
          "internalType": "bool",
          "name": "",
          "type": "bool"
        }
      ],
      "stateMutability": "view",
      "type": "function"
    }
  ],
  "bytecode": "0x608060405234801561001057600080fd5b50600080546001600160a01b0319163317905561030b806100326000396000f3fe608060405234801561001057600080fd5b50600436106100575760003560e01c80630db065f41461005c57806341724dd01461009457806377491769146100a95780638da5cb5b146100cc5780639cf5c613146100f7575b600080fd5b61007f61006a366004610277565b60026020526000908152604090205460ff1681565b60405190151581526020015b60405180910390f35b6100a76100a2366004610299565b61010a565b005b61007f6100b7366004610277565b60016020526000908152604090205460ff1681565b6000546100df906001600160a01b031681565b6040516001600160a01b03909116815260200161008b565b6100a7610105366004610299565b6101b5565b6000546001600160a01b031633146101555760405162461bcd60e51b81526020600482015260096024820152683737ba1037bbb732b960b91b60448201526064015b60405180910390fd5b6001600160a01b038216600081815260016020908152604091829020805460ff191685151590811790915591519182527fef9cbc9f13d4031b15fee4cd02650f88f0bab30554090b9a72806036931cc39391015b60405180910390a25050565b3360009081526001602052604090205460ff166102035760405162461bcd60e51b815260206004820152600c60248201526b3737ba1030ba3a32b9ba37b960a11b604482015260640161014c565b6001600160a01b038216600081815260026020908152604091829020805460ff191685151590811790915591519182527f04881682880396c5d7f330e192fcd4f8b3d4645842908712b7a005170b3120cc91016101a9565b80356001600160a01b038116811461027257600080fd5b919050565b60006020828403121561028957600080fd5b6102928261025b565b9392505050565b600080604083850312156102ac57600080fd5b6102b58361025b565b9150602083013580151581146102ca57600080fd5b80915050925092905056fea2646970667358221220cf8b5fd737d7ffa2400a1dcf1614bb1654d28a71f5c32d4f8d27fc2f8d36bd7264736f6c63430008170033",
  "linkReferences": {},
  "deployedLinkReferences": {}
}