{
  "_format": "hh-sol-artifact-1",
  "contractName": "RewardDistributor",
  "sourceName": "contracts/contracts/RewardDistributor.sol",
  "abi": [
    {
      "inputs": [
        {
          "internalType": "contract IERC20",
          "name": "_token",
          "type": "address"
        }
      ],
      "stateMutability": "nonpayable",
      "type": "constructor"
    },
    {
      "inputs": [],
      "name": "HALVING_SEC",
      "outputs": [
        {
          "internalType": "uint64",
          "name": "",
          "type": "uint64"
        }
      ],
      "stateMutability": "view",
      "type": "function"
    },
    {
      "inputs": [
        {
          "internalType": "address",
          "name": "",
          "type": "address"
        }
      ],
      "name": "authorized",
      "outputs": [
        {
          "internalType": "bool",
          "name": "",
          "type": "bool"
        }
      ],
      "stateMutability": "view",
      "type": "function"
    },
    {
      "inputs": [],
      "name": "baseYearly",
      "outputs": [
        {
          "internalType": "uint256",
          "name": "",
          "type": "uint256"
        }
      ],
      "stateMutability": "view",
      "type": "function"
    },
    {
      "inputs": [],
      "name": "claim",
      "outputs": [],
      "stateMutability": "nonpayable",
      "type": "function"
    },
    {
      "inputs": [
        {
          "internalType": "address",
          "name": "user",
          "type": "address"
        },
        {
          "internalType": "uint256",
          "name": "amount",
          "type": "uint256"
        }
      ],
      "name": "credit",
      "outputs": [],
      "stateMutability": "nonpayable",
      "type": "function"
    },
    {
      "inputs": [],
      "name": "currentRate",
      "outputs": [
        {
          "internalType": "uint256",
          "name": "yearly",
          "type": "uint256"
        }
      ],
      "stateMutability": "view",
      "type": "function"
    },
    {
      "inputs": [],
      "name": "distributed",
      "outputs": [
        {
          "internalType": "uint256",
          "name": "",
          "type": "uint256"
        }
      ],
      "stateMutability": "view",
      "type": "function"
    },
    {
      "inputs": [],
      "name": "genesis",
      "outputs": [
        {
          "internalType": "uint64",
          "name": "",
          "type": "uint64"
        }
      ],
      "stateMutability": "view",
      "type": "function"
    },
    {
      "inputs": [
        {
          "internalType": "address",
          "name": "",
          "type": "address"
        }
      ],
      "name": "pending",
      "outputs": [
        {
          "internalType": "uint256",
          "name": "",
          "type": "uint256"
        }
      ],
      "stateMutability": "view",
      "type": "function"
    },
    {
      "inputs": [
        {
          "internalType": "address",
          "name": "a",
          "type": "address"
        },
        {
          "internalType": "bool",
          "name": "ok",
          "type": "bool"
        }
      ],
      "name": "setAuthorized",
      "outputs": [],
      "stateMutability": "nonpayable",
      "type": "function"
    },
    {
      "inputs": [],
      "name": "token",
      "outputs": [
        {
          "internalType": "contract IERC20",
          "name": "",
          "type": "address"
        }
      ],
      "stateMutability": "view",
      "type": "function"
    }
  ],
  "bytecode": "0x60c06040526a0250ec4ddca432f600000060005534801561001f57600080fd5b5060405161060e38038061060e83398101604081905261003e9161005c565b6001600160a01b03166080526001600160401b03421660a05261008c565b60006020828403121561006e57600080fd5b81516001600160a01b038116811461008557600080fd5b9392505050565b60805160a05161054f6100bf6000396000818161013201526103a40152600081816101d4015261029f015261054f6000f3fe608060405234801561001057600080fd5b50600436106100a95760003560e01c8063b918161111610071578063b91816111461016d578063c8d6fc20146101a0578063ef6506db146101ab578063f84b903e146101be578063f9f8bdb7146101c7578063fc0c546a146101cf57600080fd5b80634181e0e7146100ae5780634e71d92d146100ca5780635eebea20146100d4578063711bf9b2146100f4578063a7f0b3de1461012d575b600080fd5b6100b760005481565b6040519081526020015b60405180910390f35b6100d261020e565b005b6100b76100e2366004610404565b60026020526000908152604090205481565b6100d2610102366004610437565b6001600160a01b03919091166000908152600360205260409020805460ff1916911515919091179055565b6101547f000000000000000000000000000000000000000000000000000000000000000081565b60405167ffffffffffffffff90911681526020016100c1565b61019061017b366004610404565b60036020526000908152604090205460ff1681565b60405190151581526020016100c1565b6101546303c2670081565b6100d26101b936600461046e565b610318565b6100b760015481565b6100b7610393565b6101f67f000000000000000000000000000000000000000000000000000000000000000081565b6040516001600160a01b0390911681526020016100c1565b336000908152600260205260409020548061025a5760405162461bcd60e51b81526020600482015260076024820152666e6f7468696e6760c81b60448201526064015b60405180910390fd5b3360009081526002602052604081208190556001805483929061027e9084906104ae565b909155505060405163a9059cbb60e01b8152336004820152602481018290527f00000000000000000000000000000000000000000000000000000000000000006001600160a01b03169063a9059cbb906044016020604051808303816000875af11580156102f0573d6000803e3d6000fd5b505050506040513d601f19601f8201168201806040525081019061031491906104c7565b5050565b3360009081526003602052604090205460ff166103625760405162461bcd60e51b81526020600482015260086024820152670dcdee840c2eae8d60c31b6044820152606401610251565b6001600160a01b0382166000908152600260205260408120805483929061038a9084906104ae565b90915550505050565b6000806103ca67ffffffffffffffff7f000000000000000000000000000000000000000000000000000000000000000016426104e4565b905060006103dc6303c26700836104f7565b600054901c9392505050565b80356001600160a01b03811681146103ff57600080fd5b919050565b60006020828403121561041657600080fd5b61041f826103e8565b9392505050565b801515811461043457600080fd5b50565b6000806040838503121561044a57600080fd5b610453836103e8565b9150602083013561046381610426565b809150509250929050565b6000806040838503121561048157600080fd5b61048a836103e8565b946020939093013593505050565b634e487b7160e01b600052601160045260246000fd5b808201808211156104c1576104c1610498565b92915050565b6000602082840312156104d957600080fd5b815161041f81610426565b818103818111156104c1576104c1610498565b60008261051457634e487b7160e01b600052601260045260246000fd5b50049056fea2646970667358221220ae15bb6ccc98fcdcb8ee13851fbe9aac636d78d3dd79867a7f665442250c0fb664736f6c63430008170033",
  "linkReferences": {},
  "deployedLinkReferences": {}
}