{"contracts/contracts/KYCAttestor.sol":{"KYCAttestor":{"abi":[{"inputs":[],"stateMutability":"nonpayable","type":"constructor"},{"anonymous":false,"inputs":[{"indexed":true,"internalType":"address","name":"a","type":"address"},{"indexed":false,"internalType":"bool","name":"ok","type":"bool"}],"name":"AttestorSet","type":"event"},{"anonymous":false,"inputs":[{"indexed":true,"internalType":"address","name":"user","type":"address"},{"indexed":false,"internalType":"bool","name":"ok","type":"bool"}],"name":"Verified","type":"event"},{"inputs":[{"internalType":"address","name":"","type":"address"}],"name":"attestor","outputs":[{"internalType":"bool","name":"","type":"bool"}],"stateMutability":"view","type":"function"},{"inputs":[],"name":"owner","outputs":[{"internalType":"address","name":"","type":"address"}],"stateMutability":"view","type":"function"},{"inputs":[{"internalType":"address","name":"a","type":"address"},{"internalType":"bool","name":"ok","type":"bool"}],"name":"setAttestor","outputs":[],"stateMutability":"nonpayable","type":"function"},{"inputs":[{"internalType":"address","name":"user","type":"address"},{"internalType":"bool","name":"ok","type":"bool"}],"name":"setVerified","outputs":[],"stateMutability":"nonpayable","type":"function"},{"inputs":[{"internalType":"address","name":"","type":"address"}],"name":"verified","outputs":[{"internalType":"bool","name":"","type":"bool"}],"stateMutability":"view","type":"function"}],"evm":{"bytecode":{"linkReferences":{},"object":"608060405234801561001057600080fd5b50600080546001600160a01b0319163317905561030b806100326000396000f3fe608060405234801561001057600080fd5b50600436106100575760003560e01c80630db065f41461005c57806341724dd01461009457806377491769146100a95780638da5cb5b146100cc5780639cf5c613146100f7575b600080fd5b61007f61006a366004610277565b60026020526000908152604090205460ff1681565b60405190151581526020015b60405180910390f35b6100a76100a2366004610299565b61010a565b005b61007f6100b7366004610277565b60016020526000908152604090205460ff1681565b6000546100df906001600160a01b031681565b6040516001600160a01b03909116815260200161008b565b6100a7610105366004610299565b6101b5565b6000546001600160a01b031633146101555760405162461bcd60e51b81526020600482015260096024820152683737ba1037bbb732b960b91b60448201526064015b60405180910390fd5b6001600160a01b038216600081815260016020908152604091829020805460ff191685151590811790915591519182527fef9cbc9f13d4031b15fee4cd02650f88f0bab30554090b9a72806036931cc39391015b60405180910390a25050565b3360009081526001602052604090205460ff166102035760405162461bcd60e51b815260206004820152600c60248201526b3737ba1030ba3a32b9ba37b960a11b604482015260640161014c565b6001600160a01b038216600081815260026020908152604091829020805460ff191685151590811790915591519182527f04881682880396c5d7f330e192fcd4f8b3d4645842908712b7a005170b3120cc91016101a9565b80356001600160a01b038116811461027257600080fd5b919050565b60006020828403121561028957600080fd5b6102928261025b565b9392505050565b600080604083850312156102ac57600080fd5b6102b58361025b565b9150602083013580151581146102ca57600080fd5b80915050925092905056fea2646970667358221220cf8b5fd737d7ffa2400a1dcf1614bb1654d28a71f5c32d4f8d27fc2f8d36bd7264736f6c63430008170033","opcodes":"PUSH1 0x80 PUSH1 0x40 MSTORE CALLVALUE DUP1 ISZERO PUSH2 0x10 JUMPI PUSH1 0x0 DUP1 REVERT JUMPDEST POP PUSH1 0x0 DUP1 SLOAD PUSH1 0x1 PUSH1 0x1 PUSH1 0xA0 SHL SUB NOT AND CALLER OR SWAP1 SSTORE PUSH2 0x30B DUP1 PUSH2 0x32 PUSH1 0x0 CODECOPY PUSH1 0x0 RETURN INVALID PUSH1 0x80 PUSH1 0x40 MSTORE CALLVALUE DUP1 ISZERO PUSH2 0x10 JUMPI PUSH1 0x0 DUP1 REVERT JUMPDEST POP PUSH1 0x4 CALLDATASIZE LT PUSH2 0x57 JUMPI PUSH1 0x0 CALLDATALOAD PUSH1 0xE0 SHR DUP1 PUSH4 0xDB065F4 EQ PUSH2 0x5C JUMPI DUP1 PUSH4 0x41724DD0 EQ PUSH2 0x94 JUMPI DUP1 PUSH4 0x77491769 EQ PUSH2 0xA9 JUMPI DUP1 PUSH4 0x8DA5CB5B EQ PUSH2 0xCC JUMPI DUP1 PUSH4 0x9CF5C613 EQ PUSH2 0xF7 JUMPI JUMPDEST PUSH1 0x0 DUP1 REVERT JUMPDEST PUSH2 0x7F PUSH2 0x6A CALLDATASIZE PUSH1 0x4 PUSH2 0x277 JUMP JUMPDEST PUSH1 0x2 PUSH1 0x20 MSTORE PUSH1 0x0 SWAP1 DUP2 MSTORE PUSH1 0x40 SWAP1 KECCAK256 SLOAD PUSH1 0xFF AND DUP2 JUMP JUMPDEST PUSH1 0x40 MLOAD SWAP1 ISZERO ISZERO DUP2 MSTORE PUSH1 0x20 ADD JUMPDEST PUSH1 0x40 MLOAD DUP1 SWAP2 SUB SWAP1 RETURN JUMPDEST PUSH2 0xA7 PUSH2 0xA2 CALLDATASIZE PUSH1 0x4 PUSH2 0x299 JUMP JUMPDEST PUSH2 0x10A JUMP JUMPDEST STOP JUMPDEST PUSH2 0x7F PUSH2 0xB7 CALLDATASIZE PUSH1 0x4 PUSH2 0x277 JUMP JUMPDEST PUSH1 0x1 PUSH1 0x20 MSTORE PUSH1 0x0 SWAP1 DUP2 MSTORE PUSH1 0x40 SWAP1 KECCAK256 SLOAD PUSH1 0xFF AND DUP2 JUMP JUMPDEST PUSH1 0x0 SLOAD PUSH2 0xDF SWAP1 PUSH1 0x1 PUSH1 0x1 PUSH1 0xA0 SHL SUB AND DUP2 JUMP JUMPDEST PUSH1 0x40 MLOAD PUSH1 0x1 PUSH1 0x1 PUSH1 0xA0 SHL SUB SWAP1 SWAP2 AND DUP2 MSTORE PUSH1 0x20 ADD PUSH2 0x8B JUMP JUMPDEST PUSH2 0xA7 PUSH2 0x105 CALLDATASIZE PUSH1 0x4 PUSH2 0x299 JUMP JUMPDEST PUSH2 0x1B5 JUMP JUMPDEST PUSH1 0x0 SLOAD PUSH1 0x1 PUSH1 0x1 PUSH1 0xA0 SHL SUB AND CALLER EQ PUSH2 0x155 JUMPI PUSH1 0x40 MLOAD PUSH3 0x461BCD PUSH1 0xE5 SHL DUP2 MSTORE PUSH1 0x20 PUSH1 0x4 DUP3 ADD MSTORE PUSH1 0x9 PUSH1 0x24 DUP3 ADD MSTORE PUSH9 0x3737BA1037BBB732B9 PUSH1 0xB9 SHL PUSH1 0x44 DUP3 ADD MSTORE PUSH1 0x64 ADD JUMPDEST PUSH1 0x40 MLOAD DUP1 SWAP2 SUB SWAP1 REVERT JUMPDEST PUSH1 0x1 PUSH1 0x1 PUSH1 0xA0 SHL SUB DUP3 AND PUSH1 0x0 DUP2 DUP2 MSTORE PUSH1 0x1 PUSH1 0x20 SWAP1 DUP2 MSTORE PUSH1 0x40 SWAP2 DUP3 SWAP1 KECCAK256 DUP1 SLOAD PUSH1 0xFF NOT AND DUP6 ISZERO ISZERO SWAP1 DUP2 OR SWAP1 SWAP2 SSTORE SWAP2 MLOAD SWAP2 DUP3 MSTORE PUSH32 0xEF9CBC9F13D4031B15FEE4CD02650F88F0BAB30554090B9A72806036931CC393 SWAP2 ADD JUMPDEST PUSH1 0x40 MLOAD DUP1 SWAP2 SUB SWAP1 LOG2 POP POP JUMP JUMPDEST CALLER PUSH1 0x0 SWAP1 DUP2 MSTORE PUSH1 0x1 PUSH1 0x20 MSTORE PUSH1 0x40 SWAP1 KECCAK256 SLOAD PUSH1 0xFF AND PUSH2 0x203 JUMPI PUSH1 0x40 MLOAD PUSH3 0x461BCD PUSH1 0xE5 SHL DUP2 MSTORE PUSH1 0x20 PUSH1 0x4 DUP3 ADD MSTORE PUSH1 0xC PUSH1 0x24 DUP3 ADD MSTORE PUSH12 0x3737BA1030BA3A32B9BA37B9 PUSH1 0xA1 SHL PUSH1 0x44 DUP3 ADD MSTORE PUSH1 0x64 ADD PUSH2 0x14C JUMP JUMPDEST PUSH1 0x1 PUSH1 0x1 PUSH1 0xA0 SHL SUB DUP3 AND PUSH1 0x0 DUP2 DUP2 MSTORE PUSH1 0x2 PUSH1 0x20 SWAP1 DUP2 MSTORE PUSH1 0x40 SWAP2 DUP3 SWAP1 KECCAK256 DUP1 SLOAD PUSH1 0xFF NOT AND DUP6 ISZERO ISZERO SWAP1 DUP2 OR SWAP1 SWAP2 SSTORE SWAP2 MLOAD SWAP2 DUP3 MSTORE PUSH32 0x4881682880396C5D7F330E192FCD4F8B3D4645842908712B7A005170B3120CC SWAP2 ADD PUSH2 0x1A9 JUMP JUMPDEST DUP1 CALLDATALOAD PUSH1 0x1 PUSH1 0x1 PUSH1 0xA0 SHL SUB DUP2 AND DUP2 EQ PUSH2 0x272 JUMPI PUSH1 0x0 DUP1 REVERT JUMPDEST SWAP2 SWAP1 POP JUMP JUMPDEST PUSH1 0x0 PUSH1 0x20 DUP3 DUP5 SUB SLT ISZERO PUSH2 0x289 JUMPI PUSH1 0x0 DUP1 REVERT JUMPDEST PUSH2 0x292 DUP3 PUSH2 0x25B JUMP JUMPDEST SWAP4 SWAP3 POP POP POP JUMP JUMPDEST PUSH1 0x0 DUP1 PUSH1 0x40 DUP4 DUP6 SUB SLT ISZERO PUSH2 0x2AC JUMPI PUSH1 0x0 DUP1 REVERT JUMPDEST PUSH2 0x2B5 DUP4 PUSH2 0x25B JUMP JUMPDEST SWAP2 POP PUSH1 0x20 DUP4 ADD CALLDATALOAD DUP1 ISZERO ISZERO DUP2 EQ PUSH2 0x2CA JUMPI PUSH1 0x0 DUP1 REVERT JUMPDEST DUP1 SWAP2 POP POP SWAP3 POP SWAP3 SWAP1 POP JUMP INVALID LOG2 PUSH5 0x6970667358 0x22 SLT KECCAK256 0xCF DUP12 PUSH0 0xD7 CALLDATACOPY 0xD7 SELFDESTRUCT LOG2 BLOCKHASH EXP SAR 0xCF AND EQ 0xBB AND SLOAD 0xD2 DUP11 PUSH18 0xF5C32D4F8D27FC2F8D36BD7264736F6C6343 STOP ADDMOD OR STOP CALLER "},"methodIdentifiers":{"attestor(address)":"77491769","owner()":"8da5cb5b","setAttestor(address,bool)":"41724dd0","setVerified(address,bool)":"9cf5c613","verified(address)":"0db065f4"}}}}}