{"contracts/contracts/RewardDistributor.sol":{"RewardDistributor":{"abi":[{"inputs":[{"internalType":"contract IERC20","name":"_token","type":"address"}],"stateMutability":"nonpayable","type":"constructor"},{"inputs":[],"name":"HALVING_SEC","outputs":[{"internalType":"uint64","name":"","type":"uint64"}],"stateMutability":"view","type":"function"},{"inputs":[{"internalType":"address","name":"","type":"address"}],"name":"authorized","outputs":[{"internalType":"bool","name":"","type":"bool"}],"stateMutability":"view","type":"function"},{"inputs":[],"name":"baseYearly","outputs":[{"internalType":"uint256","name":"","type":"uint256"}],"stateMutability":"view","type":"function"},{"inputs":[],"name":"claim","outputs":[],"stateMutability":"nonpayable","type":"function"},{"inputs":[{"internalType":"address","name":"user","type":"address"},{"internalType":"uint256","name":"amount","type":"uint256"}],"name":"credit","outputs":[],"stateMutability":"nonpayable","type":"function"},{"inputs":[],"name":"currentRate","outputs":[{"internalType":"uint256","name":"yearly","type":"uint256"}],"stateMutability":"view","type":"function"},{"inputs":[],"name":"distributed","outputs":[{"internalType":"uint256","name":"","type":"uint256"}],"stateMutability":"view","type":"function"},{"inputs":[],"name":"genesis","outputs":[{"internalType":"uint64","name":"","type":"uint64"}],"stateMutability":"view","type":"function"},{"inputs":[{"internalType":"address","name":"","type":"address"}],"name":"pending","outputs":[{"internalType":"uint256","name":"","type":"uint256"}],"stateMutability":"view","type":"function"},{"inputs":[{"internalType":"address","name":"a","type":"address"},{"internalType":"bool","name":"ok","type":"bool"}],"name":"setAuthorized","outputs":[],"stateMutability":"nonpayable","type":"function"},{"inputs":[],"name":"token","outputs":[{"internalType":"contract IERC20","name":"","type":"address"}],"stateMutability":"view","type":"function"}],"evm":{"bytecode":{"linkReferences":{},"object":"60c06040526a0250ec4ddca432f600000060005534801561001f57600080fd5b5060405161060e38038061060e83398101604081905261003e9161005c565b6001600160a01b03166080526001600160401b03421660a05261008c565b60006020828403121561006e57600080fd5b81516001600160a01b038116811461008557600080fd5b9392505050565b60805160a05161054f6100bf6000396000818161013201526103a40152600081816101d4015261029f015261054f6000f3fe608060405234801561001057600080fd5b50600436106100a95760003560e01c8063b918161111610071578063b91816111461016d578063c8d6fc20146101a0578063ef6506db146101ab578063f84b903e146101be578063f9f8bdb7146101c7578063fc0c546a146101cf57600080fd5b80634181e0e7146100ae5780634e71d92d146100ca5780635eebea20146100d4578063711bf9b2146100f4578063a7f0b3de1461012d575b600080fd5b6100b760005481565b6040519081526020015b60405180910390f35b6100d261020e565b005b6100b76100e2366004610404565b60026020526000908152604090205481565b6100d2610102366004610437565b6001600160a01b03919091166000908152600360205260409020805460ff1916911515919091179055565b6101547f000000000000000000000000000000000000000000000000000000000000000081565b60405167ffffffffffffffff90911681526020016100c1565b61019061017b366004610404565b60036020526000908152604090205460ff1681565b60405190151581526020016100c1565b6101546303c2670081565b6100d26101b936600461046e565b610318565b6100b760015481565b6100b7610393565b6101f67f000000000000000000000000000000000000000000000000000000000000000081565b6040516001600160a01b0390911681526020016100c1565b336000908152600260205260409020548061025a5760405162461bcd60e51b81526020600482015260076024820152666e6f7468696e6760c81b60448201526064015b60405180910390fd5b3360009081526002602052604081208190556001805483929061027e9084906104ae565b909155505060405163a9059cbb60e01b8152336004820152602481018290527f00000000000000000000000000000000000000000000000000000000000000006001600160a01b03169063a9059cbb906044016020604051808303816000875af11580156102f0573d6000803e3d6000fd5b505050506040513d601f19601f8201168201806040525081019061031491906104c7565b5050565b3360009081526003602052604090205460ff166103625760405162461bcd60e51b81526020600482015260086024820152670dcdee840c2eae8d60c31b6044820152606401610251565b6001600160a01b0382166000908152600260205260408120805483929061038a9084906104ae565b90915550505050565b6000806103ca67ffffffffffffffff7f000000000000000000000000000000000000000000000000000000000000000016426104e4565b905060006103dc6303c26700836104f7565b600054901c9392505050565b80356001600160a01b03811681146103ff57600080fd5b919050565b60006020828403121561041657600080fd5b61041f826103e8565b9392505050565b801515811461043457600080fd5b50565b6000806040838503121561044a57600080fd5b610453836103e8565b9150602083013561046381610426565b809150509250929050565b6000806040838503121561048157600080fd5b61048a836103e8565b946020939093013593505050565b634e487b7160e01b600052601160045260246000fd5b808201808211156104c1576104c1610498565b92915050565b6000602082840312156104d957600080fd5b815161041f81610426565b818103818111156104c1576104c1610498565b60008261051457634e487b7160e01b600052601260045260246000fd5b50049056fea2646970667358221220ae15bb6ccc98fcdcb8ee13851fbe9aac636d78d3dd79867a7f665442250c0fb664736f6c63430008170033","opcodes":"PUSH1 0xC0 PUSH1 0x40 MSTORE PUSH11 0x250EC4DDCA432F6000000 PUSH1 0x0 SSTORE CALLVALUE DUP1 ISZERO PUSH2 0x1F JUMPI PUSH1 0x0 DUP1 REVERT JUMPDEST POP PUSH1 0x40 MLOAD PUSH2 0x60E CODESIZE SUB DUP1 PUSH2 0x60E DUP4 CODECOPY DUP2 ADD PUSH1 0x40 DUP2 SWAP1 MSTORE PUSH2 0x3E SWAP2 PUSH2 0x5C JUMP JUMPDEST PUSH1 0x1 PUSH1 0x1 PUSH1 0xA0 SHL SUB AND PUSH1 0x80 MSTORE PUSH1 0x1 PUSH1 0x1 PUSH1 0x40 SHL SUB TIMESTAMP AND PUSH1 0xA0 MSTORE PUSH2 0x8C JUMP JUMPDEST PUSH1 0x0 PUSH1 0x20 DUP3 DUP5 SUB SLT ISZERO PUSH2 0x6E JUMPI PUSH1 0x0 DUP1 REVERT JUMPDEST DUP2 MLOAD PUSH1 0x1 PUSH1 0x1 PUSH1 0xA0 SHL SUB DUP2 AND DUP2 EQ PUSH2 0x85 JUMPI PUSH1 0x0 DUP1 REVERT JUMPDEST SWAP4 SWAP3 POP POP POP JUMP JUMPDEST PUSH1 0x80 MLOAD PUSH1 0xA0 MLOAD PUSH2 0x54F PUSH2 0xBF PUSH1 0x0 CODECOPY PUSH1 0x0 DUP2 DUP2 PUSH2 0x132 ADD MSTORE PUSH2 0x3A4 ADD MSTORE PUSH1 0x0 DUP2 DUP2 PUSH2 0x1D4 ADD MSTORE PUSH2 0x29F ADD MSTORE PUSH2 0x54F PUSH1 0x0 RETURN INVALID PUSH1 0x80 PUSH1 0x40 MSTORE CALLVALUE DUP1 ISZERO PUSH2 0x10 JUMPI PUSH1 0x0 DUP1 REVERT JUMPDEST POP PUSH1 0x4 CALLDATASIZE LT PUSH2 0xA9 JUMPI PUSH1 0x0 CALLDATALOAD PUSH1 0xE0 SHR DUP1 PUSH4 0xB9181611 GT PUSH2 0x71 JUMPI DUP1 PUSH4 0xB9181611 EQ PUSH2 0x16D JUMPI DUP1 PUSH4 0xC8D6FC20 EQ PUSH2 0x1A0 JUMPI DUP1 PUSH4 0xEF6506DB EQ PUSH2 0x1AB JUMPI DUP1 PUSH4 0xF84B903E EQ PUSH2 0x1BE JUMPI DUP1 PUSH4 0xF9F8BDB7 EQ PUSH2 0x1C7 JUMPI DUP1 PUSH4 0xFC0C546A EQ PUSH2 0x1CF JUMPI PUSH1 0x0 DUP1 REVERT JUMPDEST DUP1 PUSH4 0x4181E0E7 EQ PUSH2 0xAE JUMPI DUP1 PUSH4 0x4E71D92D EQ PUSH2 0xCA JUMPI DUP1 PUSH4 0x5EEBEA20 EQ PUSH2 0xD4 JUMPI DUP1 PUSH4 0x711BF9B2 EQ PUSH2 0xF4 JUMPI DUP1 PUSH4 0xA7F0B3DE EQ PUSH2 0x12D JUMPI JUMPDEST PUSH1 0x0 DUP1 REVERT JUMPDEST PUSH2 0xB7 PUSH1 0x0 SLOAD DUP2 JUMP JUMPDEST PUSH1 0x40 MLOAD SWAP1 DUP2 MSTORE PUSH1 0x20 ADD JUMPDEST PUSH1 0x40 MLOAD DUP1 SWAP2 SUB SWAP1 RETURN JUMPDEST PUSH2 0xD2 PUSH2 0x20E JUMP JUMPDEST STOP JUMPDEST PUSH2 0xB7 PUSH2 0xE2 CALLDATASIZE PUSH1 0x4 PUSH2 0x404 JUMP JUMPDEST PUSH1 0x2 PUSH1 0x20 MSTORE PUSH1 0x0 SWAP1 DUP2 MSTORE PUSH1 0x40 SWAP1 KECCAK256 SLOAD DUP2 JUMP JUMPDEST PUSH2 0xD2 PUSH2 0x102 CALLDATASIZE PUSH1 0x4 PUSH2 0x437 JUMP JUMPDEST PUSH1 0x1 PUSH1 0x1 PUSH1 0xA0 SHL SUB SWAP2 SWAP1 SWAP2 AND PUSH1 0x0 SWAP1 DUP2 MSTORE PUSH1 0x3 PUSH1 0x20 MSTORE PUSH1 0x40 SWAP1 KECCAK256 DUP1 SLOAD PUSH1 0xFF NOT AND SWAP2 ISZERO ISZERO SWAP2 SWAP1 SWAP2 OR SWAP1 SSTORE JUMP JUMPDEST PUSH2 0x154 PUSH32 0x0 DUP2 JUMP JUMPDEST PUSH1 0x40 MLOAD PUSH8 0xFFFFFFFFFFFFFFFF SWAP1 SWAP2 AND DUP2 MSTORE PUSH1 0x20 ADD PUSH2 0xC1 JUMP JUMPDEST PUSH2 0x190 PUSH2 0x17B CALLDATASIZE PUSH1 0x4 PUSH2 0x404 JUMP JUMPDEST PUSH1 0x3 PUSH1 0x20 MSTORE PUSH1 0x0 SWAP1 DUP2 MSTORE PUSH1 0x40 SWAP1 KECCAK256 SLOAD PUSH1 0xFF AND DUP2 JUMP JUMPDEST PUSH1 0x40 MLOAD SWAP1 ISZERO ISZERO DUP2 MSTORE PUSH1 0x20 ADD PUSH2 0xC1 JUMP JUMPDEST PUSH2 0x154 PUSH4 0x3C26700 DUP2 JUMP JUMPDEST PUSH2 0xD2 PUSH2 0x1B9 CALLDATASIZE PUSH1 0x4 PUSH2 0x46E JUMP JUMPDEST PUSH2 0x318 JUMP JUMPDEST PUSH2 0xB7 PUSH1 0x1 SLOAD DUP2 JUMP JUMPDEST PUSH2 0xB7 PUSH2 0x393 JUMP JUMPDEST PUSH2 0x1F6 PUSH32 0x0 DUP2 JUMP JUMPDEST PUSH1 0x40 MLOAD PUSH1 0x1 PUSH1 0x1 PUSH1 0xA0 SHL SUB SWAP1 SWAP2 AND DUP2 MSTORE PUSH1 0x20 ADD PUSH2 0xC1 JUMP JUMPDEST CALLER PUSH1 0x0 SWAP1 DUP2 MSTORE PUSH1 0x2 PUSH1 0x20 MSTORE PUSH1 0x40 SWAP1 KECCAK256 SLOAD DUP1 PUSH2 0x25A JUMPI PUSH1 0x40 MLOAD PUSH3 0x461BCD PUSH1 0xE5 SHL DUP2 MSTORE PUSH1 0x20 PUSH1 0x4 DUP3 ADD MSTORE PUSH1 0x7 PUSH1 0x24 DUP3 ADD MSTORE PUSH7 0x6E6F7468696E67 PUSH1 0xC8 SHL PUSH1 0x44 DUP3 ADD MSTORE PUSH1 0x64 ADD JUMPDEST PUSH1 0x40 MLOAD DUP1 SWAP2 SUB SWAP1 REVERT JUMPDEST CALLER PUSH1 0x0 SWAP1 DUP2 MSTORE PUSH1 0x2 PUSH1 0x20 MSTORE PUSH1 0x40 DUP2 KECCAK256 DUP2 SWAP1 SSTORE PUSH1 0x1 DUP1 SLOAD DUP4 SWAP3 SWAP1 PUSH2 0x27E SWAP1 DUP5 SWAP1 PUSH2 0x4AE JUMP JUMPDEST SWAP1 SWAP2 SSTORE POP POP PUSH1 0x40 MLOAD PUSH4 0xA9059CBB PUSH1 0xE0 SHL DUP2 MSTORE CALLER PUSH1 0x4 DUP3 ADD MSTORE PUSH1 0x24 DUP2 ADD DUP3 SWAP1 MSTORE PUSH32 0x0 PUSH1 0x1 PUSH1 0x1 PUSH1 0xA0 SHL SUB AND SWAP1 PUSH4 0xA9059CBB SWAP1 PUSH1 0x44 ADD PUSH1 0x20 PUSH1 0x40 MLOAD DUP1 DUP4 SUB DUP2 PUSH1 0x0 DUP8 GAS CALL ISZERO DUP1 ISZERO PUSH2 0x2F0 JUMPI RETURNDATASIZE PUSH1 0x0 DUP1 RETURNDATACOPY RETURNDATASIZE PUSH1 0x0 REVERT JUMPDEST POP POP POP POP PUSH1 0x40 MLOAD RETURNDATASIZE PUSH1 0x1F NOT PUSH1 0x1F DUP3 ADD AND DUP3 ADD DUP1 PUSH1 0x40 MSTORE POP DUP2 ADD SWAP1 PUSH2 0x314 SWAP2 SWAP1 PUSH2 0x4C7 JUMP JUMPDEST POP POP JUMP JUMPDEST CALLER PUSH1 0x0 SWAP1 DUP2 MSTORE PUSH1 0x3 PUSH1 0x20 MSTORE PUSH1 0x40 SWAP1 KECCAK256 SLOAD PUSH1 0xFF AND PUSH2 0x362 JUMPI PUSH1 0x40 MLOAD PUSH3 0x461BCD PUSH1 0xE5 SHL DUP2 MSTORE PUSH1 0x20 PUSH1 0x4 DUP3 ADD MSTORE PUSH1 0x8 PUSH1 0x24 DUP3 ADD MSTORE PUSH8 0xDCDEE840C2EAE8D PUSH1 0xC3 SHL PUSH1 0x44 DUP3 ADD MSTORE PUSH1 0x64 ADD PUSH2 0x251 JUMP JUMPDEST PUSH1 0x1 PUSH1 0x1 PUSH1 0xA0 SHL SUB DUP3 AND PUSH1 0x0 SWAP1 DUP2 MSTORE PUSH1 0x2 PUSH1 0x20 MSTORE PUSH1 0x40 DUP2 KECCAK256 DUP1 SLOAD DUP4 SWAP3 SWAP1 PUSH2 0x38A SWAP1 DUP5 SWAP1 PUSH2 0x4AE JUMP JUMPDEST SWAP1 SWAP2 SSTORE POP POP POP POP JUMP JUMPDEST PUSH1 0x0 DUP1 PUSH2 0x3CA PUSH8 0xFFFFFFFFFFFFFFFF PUSH32 0x0 AND TIMESTAMP PUSH2 0x4E4 JUMP JUMPDEST SWAP1 POP PUSH1 0x0 PUSH2 0x3DC PUSH4 0x3C26700 DUP4 PUSH2 0x4F7 JUMP JUMPDEST PUSH1 0x0 SLOAD SWAP1 SHR SWAP4 SWAP3 POP POP POP JUMP JUMPDEST DUP1 CALLDATALOAD PUSH1 0x1 PUSH1 0x1 PUSH1 0xA0 SHL SUB DUP2 AND DUP2 EQ PUSH2 0x3FF JUMPI PUSH1 0x0 DUP1 REVERT JUMPDEST SWAP2 SWAP1 POP JUMP JUMPDEST PUSH1 0x0 PUSH1 0x20 DUP3 DUP5 SUB SLT ISZERO PUSH2 0x416 JUMPI PUSH1 0x0 DUP1 REVERT JUMPDEST PUSH2 0x41F DUP3 PUSH2 0x3E8 JUMP JUMPDEST SWAP4 SWAP3 POP POP POP JUMP JUMPDEST DUP1 ISZERO ISZERO DUP2 EQ PUSH2 0x434 JUMPI PUSH1 0x0 DUP1 REVERT JUMPDEST POP JUMP JUMPDEST PUSH1 0x0 DUP1 PUSH1 0x40 DUP4 DUP6 SUB SLT ISZERO PUSH2 0x44A JUMPI PUSH1 0x0 DUP1 REVERT JUMPDEST PUSH2 0x453 DUP4 PUSH2 0x3E8 JUMP JUMPDEST SWAP2 POP PUSH1 0x20 DUP4 ADD CALLDATALOAD PUSH2 0x463 DUP2 PUSH2 0x426 JUMP JUMPDEST DUP1 SWAP2 POP POP SWAP3 POP SWAP3 SWAP1 POP JUMP JUMPDEST PUSH1 0x0 DUP1 PUSH1 0x40 DUP4 DUP6 SUB SLT ISZERO PUSH2 0x481 JUMPI PUSH1 0x0 DUP1 REVERT JUMPDEST PUSH2 0x48A DUP4 PUSH2 0x3E8 JUMP JUMPDEST SWAP5 PUSH1 0x20 SWAP4 SWAP1 SWAP4 ADD CALLDATALOAD SWAP4 POP POP POP JUMP JUMPDEST PUSH4 0x4E487B71 PUSH1 0xE0 SHL PUSH1 0x0 MSTORE PUSH1 0x11 PUSH1 0x4 MSTORE PUSH1 0x24 PUSH1 0x0 REVERT JUMPDEST DUP1 DUP3 ADD DUP1 DUP3 GT ISZERO PUSH2 0x4C1 JUMPI PUSH2 0x4C1 PUSH2 0x498 JUMP JUMPDEST SWAP3 SWAP2 POP POP JUMP JUMPDEST PUSH1 0x0 PUSH1 0x20 DUP3 DUP5 SUB SLT ISZERO PUSH2 0x4D9 JUMPI PUSH1 0x0 DUP1 REVERT JUMPDEST DUP2 MLOAD PUSH2 0x41F DUP2 PUSH2 0x426 JUMP JUMPDEST DUP2 DUP2 SUB DUP2 DUP2 GT ISZERO PUSH2 0x4C1 JUMPI PUSH2 0x4C1 PUSH2 0x498 JUMP JUMPDEST PUSH1 0x0 DUP3 PUSH2 0x514 JUMPI PUSH4 0x4E487B71 PUSH1 0xE0 SHL PUSH1 0x0 MSTORE PUSH1 0x12 PUSH1 0x4 MSTORE PUSH1 0x24 PUSH1 0x0 REVERT JUMPDEST POP DIV SWAP1 JUMP INVALID LOG2 PUSH5 0x6970667358 0x22 SLT KECCAK256 0xAE ISZERO 0xBB PUSH13 0xCC98FCDCB8EE13851FBE9AAC63 PUSH14 0x78D3DD79867A7F665442250C0FB6 PUSH5 0x736F6C6343 STOP ADDMOD OR STOP CALLER "},"methodIdentifiers":{"HALVING_SEC()":"c8d6fc20","authorized(address)":"b9181611","baseYearly()":"4181e0e7","claim()":"4e71d92d","credit(address,uint256)":"ef6506db","currentRate()":"f9f8bdb7","distributed()":"f84b903e","genesis()":"a7f0b3de","pending(address)":"5eebea20","setAuthorized(address,bool)":"711bf9b2","token()":"fc0c546a"}}}}}