{
  "_format": "hh-sol-artifact-1",
  "contractName": "LockupStaking",
  "sourceName": "contracts/contracts/LockupStaking.sol",
  "abi": [
    {
      "inputs": [
        {
          "internalType": "contract IERC20",
          "name": "_token",
          "type": "address"
        }
      ],
      "stateMutability": "nonpayable",
      "type": "constructor"
    },
    {
      "anonymous": false,
      "inputs": [
        {
          "indexed": true,
          "internalType": "address",
          "name": "user",
          "type": "address"
        },
        {
          "indexed": false,
          "internalType": "uint256",
          "name": "amount",
          "type": "uint256"
        },
        {
          "indexed": false,
          "internalType": "uint64",
          "name": "daysLocked",
          "type": "uint64"
        }
      ],
      "name": "Locked",
      "type": "event"
    },
    {
      "anonymous": false,
      "inputs": [
        {
          "indexed": true,
          "internalType": "address",
          "name": "user",
          "type": "address"
        },
        {
          "indexed": false,
          "internalType": "uint256",
          "name": "amount",
          "type": "uint256"
        }
      ],
      "name": "Unlocked",
      "type": "event"
    },
    {
      "inputs": [
        {
          "internalType": "address",
          "name": "u",
          "type": "address"
        }
      ],
      "name": "canUnlock",
      "outputs": [
        {
          "internalType": "bool",
          "name": "",
          "type": "bool"
        }
      ],
      "stateMutability": "view",
      "type": "function"
    },
    {
      "inputs": [
        {
          "internalType": "uint256",
          "name": "amount",
          "type": "uint256"
        },
        {
          "internalType": "uint64",
          "name": "daysLocked",
          "type": "uint64"
        }
      ],
      "name": "lock",
      "outputs": [],
      "stateMutability": "nonpayable",
      "type": "function"
    },
    {
      "inputs": [
        {
          "internalType": "address",
          "name": "",
          "type": "address"
        }
      ],
      "name": "stakes",
      "outputs": [
        {
          "internalType": "uint256",
          "name": "amount",
          "type": "uint256"
        },
        {
          "internalType": "uint64",
          "name": "start",
          "type": "uint64"
        },
        {
          "internalType": "uint64",
          "name": "daysLocked",
          "type": "uint64"
        }
      ],
      "stateMutability": "view",
      "type": "function"
    },
    {
      "inputs": [],
      "name": "token",
      "outputs": [
        {
          "internalType": "contract IERC20",
          "name": "",
          "type": "address"
        }
      ],
      "stateMutability": "view",
      "type": "function"
    },
    {
      "inputs": [],
      "name": "unlock",
      "outputs": [],
      "stateMutability": "nonpayable",
      "type": "function"
    },
    {
      "inputs": [
        {
          "internalType": "address",
          "name": "u",
          "type": "address"
        }
      ],
      "name": "viewStake",
      "outputs": [
        {
          "components": [
            {
              "internalType": "uint256",
              "name": "amount",
              "type": "uint256"
            },
            {
              "internalType": "uint64",
              "name": "start",
              "type": "uint64"
            },
            {
              "internalType": "uint64",
              "name": "daysLocked",
              "type": "uint64"
            }
          ],
          "internalType": "struct LockupStaking.Stake",
          "name": "",
          "type": "tuple"
        }
      ],
      "stateMutability": "view",
      "type": "function"
    }
  ],
  "bytecode": "0x60a060405234801561001057600080fd5b5060405161071b38038061071b83398101604081905261002f91610040565b6001600160a01b0316608052610070565b60006020828403121561005257600080fd5b81516001600160a01b038116811461006957600080fd5b9392505050565b608051610682610099600039600081816101b90152818161025f015261049b01526106826000f3fe608060405234801561001057600080fd5b50600436106100625760003560e01c806316934fc4146100675780633efa9979146100ce57806359e20b68146100e3578063a0ac265514610106578063a69df4b5146101ac578063fc0c546a146101b4575b600080fd5b6100a3610075366004610541565b6000602081905290815260409020805460019091015467ffffffffffffffff80821691600160401b90041683565b6040805193845267ffffffffffffffff92831660208501529116908201526060015b60405180910390f35b6100e16100dc36600461056a565b6101f3565b005b6100f66100f1366004610541565b61037e565b60405190151581526020016100c5565b610178610114366004610541565b6040805160608082018352600080835260208084018290529284018190526001600160a01b039490941684528382529282902082519384018352805484526001015467ffffffffffffffff80821692850192909252600160401b9004169082015290565b604080518251815260208084015167ffffffffffffffff9081169183019190915292820151909216908201526060016100c5565b6100e161040d565b6101db7f000000000000000000000000000000000000000000000000000000000000000081565b6040516001600160a01b0390911681526020016100c5565b601e8167ffffffffffffffff16101561023d5760405162461bcd60e51b81526020600482015260076024820152661b5a5b880ccc1960ca1b60448201526064015b60405180910390fd5b6040516323b872dd60e01b8152336004820152306024820152604481018390527f00000000000000000000000000000000000000000000000000000000000000006001600160a01b0316906323b872dd906064016020604051808303816000875af11580156102b0573d6000803e3d6000fd5b505050506040513d601f19601f820116820180604052508101906102d491906105a7565b503360009081526020819052604081208054909184918391906102f89084906105df565b909155505060018101805467ffffffffffffffff848116600160401b026001600160801b031990921642919091161717905560405133907feb70b889cfbcb8d507e59cdc8c4163505d3a4f597cb0edd649d3b13458353b5b90610371908690869091825267ffffffffffffffff16602082015260400190565b60405180910390a2505050565b6001600160a01b0381166000908152602081815260408083208151606081018352815480825260019092015467ffffffffffffffff80821695830195909552600160401b90049093169183019190915215801590610406575060408101516103e990620151806105f8565b81602001516103f89190610624565b67ffffffffffffffff164210155b9392505050565b6104163361037e565b6104505760405162461bcd60e51b815260206004820152600b60248201526a1b9bdd081b585d1d5c995960aa1b6044820152606401610234565b33600081815260208190526040808220805492815560010180546001600160801b03191690555163a9059cbb60e01b8152600481019290925260248201819052906001600160a01b037f0000000000000000000000000000000000000000000000000000000000000000169063a9059cbb906044016020604051808303816000875af11580156104e4573d6000803e3d6000fd5b505050506040513d601f19601f8201168201806040525081019061050891906105a7565b5060405181815233907f0f0bc5b519ddefdd8e5f9e6423433aa2b869738de2ae34d58ebc796fc749fa0d9060200160405180910390a250565b60006020828403121561055357600080fd5b81356001600160a01b038116811461040657600080fd5b6000806040838503121561057d57600080fd5b82359150602083013567ffffffffffffffff8116811461059c57600080fd5b809150509250929050565b6000602082840312156105b957600080fd5b8151801515811461040657600080fd5b634e487b7160e01b600052601160045260246000fd5b808201808211156105f2576105f26105c9565b92915050565b67ffffffffffffffff81811683821602808216919082811461061c5761061c6105c9565b505092915050565b67ffffffffffffffff818116838216019080821115610645576106456105c9565b509291505056fea264697066735822122087af6fc647008f6006e8917c336e667ac57907974e95f8331fa518fb553b1c9964736f6c63430008170033",
  "linkReferences": {},
  "deployedLinkReferences": {}
}